{
  "contractName": "CryptoScripture",
  "abi": [
    {
      "anonymous": false,
      "inputs": [
        {
          "indexed": false,
          "internalType": "uint256",
          "name": "id",
          "type": "uint256"
        },
        {
          "indexed": false,
          "internalType": "string",
          "name": "hash",
          "type": "string"
        },
        {
          "indexed": false,
          "internalType": "string",
          "name": "title",
          "type": "string"
        },
        {
          "indexed": false,
          "internalType": "string",
          "name": "text",
          "type": "string"
        },
        {
          "indexed": false,
          "internalType": "uint256",
          "name": "tipAmount",
          "type": "uint256"
        },
        {
          "indexed": false,
          "internalType": "address payable",
          "name": "author",
          "type": "address"
        }
      ],
      "name": "ScriptureCreated",
      "type": "event"
    },
    {
      "anonymous": false,
      "inputs": [
        {
          "indexed": false,
          "internalType": "uint256",
          "name": "id",
          "type": "uint256"
        },
        {
          "indexed": false,
          "internalType": "string",
          "name": "hash",
          "type": "string"
        },
        {
          "indexed": false,
          "internalType": "string",
          "name": "title",
          "type": "string"
        },
        {
          "indexed": false,
          "internalType": "string",
          "name": "text",
          "type": "string"
        },
        {
          "indexed": false,
          "internalType": "uint256",
          "name": "tipAmount",
          "type": "uint256"
        },
        {
          "indexed": false,
          "internalType": "address payable",
          "name": "author",
          "type": "address"
        }
      ],
      "name": "ScriptureTipped",
      "type": "event"
    },
    {
      "constant": true,
      "inputs": [],
      "name": "name",
      "outputs": [
        {
          "internalType": "string",
          "name": "",
          "type": "string"
        }
      ],
      "payable": false,
      "stateMutability": "view",
      "type": "function"
    },
    {
      "constant": true,
      "inputs": [
        {
          "internalType": "uint256",
          "name": "",
          "type": "uint256"
        }
      ],
      "name": "scriptures",
      "outputs": [
        {
          "internalType": "uint256",
          "name": "id",
          "type": "uint256"
        },
        {
          "internalType": "string",
          "name": "hash",
          "type": "string"
        },
        {
          "internalType": "string",
          "name": "title",
          "type": "string"
        },
        {
          "internalType": "string",
          "name": "text",
          "type": "string"
        },
        {
          "internalType": "uint256",
          "name": "tipAmount",
          "type": "uint256"
        },
        {
          "internalType": "address payable",
          "name": "author",
          "type": "address"
        }
      ],
      "payable": false,
      "stateMutability": "view",
      "type": "function"
    },
    {
      "constant": true,
      "inputs": [],
      "name": "scripturesCount",
      "outputs": [
        {
          "internalType": "uint256",
          "name": "",
          "type": "uint256"
        }
      ],
      "payable": false,
      "stateMutability": "view",
      "type": "function"
    },
    {
      "constant": false,
      "inputs": [
        {
          "internalType": "string",
          "name": "_scripHash",
          "type": "string"
        },
        {
          "internalType": "string",
          "name": "_title",
          "type": "string"
        },
        {
          "internalType": "string",
          "name": "_text",
          "type": "string"
        }
      ],
      "name": "uploadScripture",
      "outputs": [],
      "payable": false,
      "stateMutability": "nonpayable",
      "type": "function"
    },
    {
      "constant": false,
      "inputs": [
        {
          "internalType": "uint256",
          "name": "_id",
          "type": "uint256"
        }
      ],
      "name": "tipScriptureOwner",
      "outputs": [],
      "payable": true,
      "stateMutability": "payable",
      "type": "function"
    }
  ],
  "bytecode": "0x60806040526040518060400160405280601181526020017f4e6f6d616473205363726970747572657300000000000000000000000000000081525060009080519060200190620000519291906200006b565b5060006001553480156200006457600080fd5b506200011a565b828054600181600116156101000203166002900490600052602060002090601f016020900481019282601f10620000ae57805160ff1916838001178555620000df565b82800160010185558215620000df579182015b82811115620000de578251825591602001919060010190620000c1565b5b509050620000ee9190620000f2565b5090565b6200011791905b8082111562000113576000816000905550600101620000f9565b5090565b90565b6111bc806200012a6000396000f3fe60806040526004361061004a5760003560e01c806306fdde031461004f5780630c4001c5146100df5780631adb8ab8146102d557806344578259146104a2578063c2f82716146104d0575b600080fd5b34801561005b57600080fd5b506100646104fb565b6040518080602001828103825283818151815260200191508051906020019080838360005b838110156100a4578082015181840152602081019050610089565b50505050905090810190601f1680156100d15780820380516001836020036101000a031916815260200191505b509250505060405180910390f35b3480156100eb57600080fd5b506102d36004803603606081101561010257600080fd5b810190808035906020019064010000000081111561011f57600080fd5b82018360208201111561013157600080fd5b8035906020019184600183028401116401000000008311171561015357600080fd5b91908080601f016020809104026020016040519081016040528093929190818152602001838380828437600081840152601f19601f820116905080830192505050505050509192919290803590602001906401000000008111156101b657600080fd5b8201836020820111156101c857600080fd5b803590602001918460018302840111640100000000831117156101ea57600080fd5b91908080601f016020809104026020016040519081016040528093929190818152602001838380828437600081840152601f19601f8201169050808301925050505050505091929192908035906020019064010000000081111561024d57600080fd5b82018360208201111561025f57600080fd5b8035906020019184600183028401116401000000008311171561028157600080fd5b91908080601f016020809104026020016040519081016040528093929190818152602001838380828437600081840152601f19601f820116905080830192505050505050509192919290505050610599565b005b3480156102e157600080fd5b5061030e600480360360208110156102f857600080fd5b81019080803590602001909291905050506108e1565b604051808781526020018060200180602001806020018681526020018573ffffffffffffffffffffffffffffffffffffffff1673ffffffffffffffffffffffffffffffffffffffff168152602001848103845289818151815260200191508051906020019080838360005b83811015610394578082015181840152602081019050610379565b50505050905090810190601f1680156103c15780820380516001836020036101000a031916815260200191505b50848103835288818151815260200191508051906020019080838360005b838110156103fa5780820151818401526020810190506103df565b50505050905090810190601f1680156104275780820380516001836020036101000a031916815260200191505b50848103825287818151815260200191508051906020019080838360005b83811015610460578082015181840152602081019050610445565b50505050905090810190601f16801561048d5780820380516001836020036101000a031916815260200191505b50995050505050505050505060405180910390f35b6104ce600480360360208110156104b857600080fd5b8101908080359060200190929190505050610b05565b005b3480156104dc57600080fd5b506104e5611090565b6040518082815260200191505060405180910390f35b60008054600181600116156101000203166002900480601f0160208091040260200160405190810160405280929190818152602001828054600181600116156101000203166002900480156105915780601f1061056657610100808354040283529160200191610591565b820191906000526020600020905b81548152906001019060200180831161057457829003601f168201915b505050505081565b60008351116105a757600080fd5b60008151116105b557600080fd5b60008251116105c357600080fd5b600073ffffffffffffffffffffffffffffffffffffffff163373ffffffffffffffffffffffffffffffffffffffff1614156105fd57600080fd5b6001600081548092919060010191905055506040518060c001604052806001548152602001848152602001838152602001828152602001600081526020013373ffffffffffffffffffffffffffffffffffffffff16815250600260006001548152602001908152602001600020600082015181600001556020820151816001019080519060200190610690929190611096565b5060408201518160020190805190602001906106ad929190611096565b5060608201518160030190805190602001906106ca929190611096565b506080820151816004015560a08201518160050160006101000a81548173ffffffffffffffffffffffffffffffffffffffff021916908373ffffffffffffffffffffffffffffffffffffffff1602179055509050507f8995d9df1bba5342371b8ee1cd067e3c766ae142f732aac8c2bc82478a774b82600154848484600033604051808781526020018060200180602001806020018681526020018573ffffffffffffffffffffffffffffffffffffffff1673ffffffffffffffffffffffffffffffffffffffff168152602001848103845289818151815260200191508051906020019080838360005b838110156107cf5780820151818401526020810190506107b4565b50505050905090810190601f1680156107fc5780820380516001836020036101000a031916815260200191505b50848103835288818151815260200191508051906020019080838360005b8381101561083557808201518184015260208101905061081a565b50505050905090810190601f1680156108625780820380516001836020036101000a031916815260200191505b50848103825287818151815260200191508051906020019080838360005b8381101561089b578082015181840152602081019050610880565b50505050905090810190601f1680156108c85780820380516001836020036101000a031916815260200191505b50995050505050505050505060405180910390a1505050565b6002602052806000526040600020600091509050806000015490806001018054600181600116156101000203166002900480601f0160208091040260200160405190810160405280929190818152602001828054600181600116156101000203166002900480156109935780601f1061096857610100808354040283529160200191610993565b820191906000526020600020905b81548152906001019060200180831161097657829003601f168201915b505050505090806002018054600181600116156101000203166002900480601f016020809104026020016040519081016040528092919081815260200182805460018160011615610100020316600290048015610a315780601f10610a0657610100808354040283529160200191610a31565b820191906000526020600020905b815481529060010190602001808311610a1457829003601f168201915b505050505090806003018054600181600116156101000203166002900480601f016020809104026020016040519081016040528092919081815260200182805460018160011615610100020316600290048015610acf5780601f10610aa457610100808354040283529160200191610acf565b820191906000526020600020905b815481529060010190602001808311610ab257829003601f168201915b5050505050908060040154908060050160009054906101000a900473ffffffffffffffffffffffffffffffffffffffff16905086565b600081118015610b1757506001548111155b610b2057600080fd5b610b28611116565b600260008381526020019081526020016000206040518060c001604052908160008201548152602001600182018054600181600116156101000203166002900480601f016020809104026020016040519081016040528092919081815260200182805460018160011615610100020316600290048015610be95780601f10610bbe57610100808354040283529160200191610be9565b820191906000526020600020905b815481529060010190602001808311610bcc57829003601f168201915b50505050508152602001600282018054600181600116156101000203166002900480601f016020809104026020016040519081016040528092919081815260200182805460018160011615610100020316600290048015610c8b5780601f10610c6057610100808354040283529160200191610c8b565b820191906000526020600020905b815481529060010190602001808311610c6e57829003601f168201915b50505050508152602001600382018054600181600116156101000203166002900480601f016020809104026020016040519081016040528092919081815260200182805460018160011615610100020316600290048015610d2d5780601f10610d0257610100808354040283529160200191610d2d565b820191906000526020600020905b815481529060010190602001808311610d1057829003601f168201915b50505050508152602001600482015481526020016005820160009054906101000a900473ffffffffffffffffffffffffffffffffffffffff1673ffffffffffffffffffffffffffffffffffffffff1673ffffffffffffffffffffffffffffffffffffffff1681525050905060008160a0015190508073ffffffffffffffffffffffffffffffffffffffff166108fc349081150290604051600060405180830381858888f19350505050158015610de7573d6000803e3d6000fd5b50348260800151018260800181815250508160026000858152602001908152602001600020600082015181600001556020820151816001019080519060200190610e32929190611096565b506040820151816002019080519060200190610e4f929190611096565b506060820151816003019080519060200190610e6c929190611096565b506080820151816004015560a08201518160050160006101000a81548173ffffffffffffffffffffffffffffffffffffffff021916908373ffffffffffffffffffffffffffffffffffffffff1602179055509050507f780a0340467d2fb13dc9aba282f38d8a7efca4e8c20a05c3a097e89d6043bb5083836020015184604001518560600151866080015186604051808781526020018060200180602001806020018681526020018573ffffffffffffffffffffffffffffffffffffffff1673ffffffffffffffffffffffffffffffffffffffff168152602001848103845289818151815260200191508051906020019080838360005b83811015610f7e578082015181840152602081019050610f63565b50505050905090810190601f168015610fab5780820380516001836020036101000a031916815260200191505b50848103835288818151815260200191508051906020019080838360005b83811015610fe4578082015181840152602081019050610fc9565b50505050905090810190601f1680156110115780820380516001836020036101000a031916815260200191505b50848103825287818151815260200191508051906020019080838360005b8381101561104a57808201518184015260208101905061102f565b50505050905090810190601f1680156110775780820380516001836020036101000a031916815260200191505b50995050505050505050505060405180910390a1505050565b60015481565b828054600181600116156101000203166002900490600052602060002090601f016020900481019282601f106110d757805160ff1916838001178555611105565b82800160010185558215611105579182015b828111156111045782518255916020019190600101906110e9565b5b5090506111129190611162565b5090565b6040518060c001604052806000815260200160608152602001606081526020016060815260200160008152602001600073ffffffffffffffffffffffffffffffffffffffff1681525090565b61118491905b80821115611180576000816000905550600101611168565b5090565b9056fea265627a7a7231582065bfccf45a229f387208892ea70ff051912b712c6698f057d795a80fc318a49c64736f6c63430005100032",
  "source": "pragma solidity ^0.5.0;\n\n//TODO ADD HASHTAGS (OPTIONAL)\n//TODO ADD DATE ADDED \n\ncontract CryptoScripture {\n    // Code goes here...\n\n    string public name = \"Nomads Scriptures\";\n\n    // STORE SCRIPTURES\n\n      uint public scripturesCount = 0;\n\n    mapping(uint => Scripture) public scriptures;\n\n    struct Scripture {\n        uint id;\n        string hash;\n        string title;\n        string text;\n        uint tipAmount;\n        address payable author;\n    }\n\n    event ScriptureCreated(\n        uint id,\n        string hash,\n        string title,\n        string text,\n        uint tipAmount,\n        address payable author\n    );\n\n    event ScriptureTipped(\n        uint id,\n        string hash,\n        string title,\n        string text,\n        uint tipAmount,\n        address payable author\n    );\n\n\n\n    // CREATE SCRIPTURE\n    function uploadScripture(\n        string memory _scripHash,\n        string memory _title,\n        string memory _text\n    ) public {\n\n        //ENSURE THAT SCRIPTURE HASH EXISTS\n        require(bytes(_scripHash).length > 0);\n        // ENSURE THAT SCRIPTURE DESCRIPTION EXISTS\n        require(bytes(_text).length > 0);\n        // ENSURE THAT SCRIPTURE TITLE EXIST\n        require(bytes(_title).length > 0);\n        // ENSURE THAT UPLOADER ADDRESS ALREADY\n        require(msg.sender != address(0));\n        // INCREMENT SCRIPTURE ID\n        scripturesCount++;\n        // ADD SCRIPTURE TO CONTRACT\n        scriptures[scripturesCount] = Scripture(\n            scripturesCount,\n            _scripHash,\n            _title,\n            _text,\n            0,\n            msg.sender\n        );\n\n        // TRIGGER ON EVENT\n        emit ScriptureCreated(\n            scripturesCount,\n            _scripHash,\n            _title,\n            _text,\n            0,\n            msg.sender\n        );\n    }\n\n    // TIP SCRIPTURES\n\n    function tipScriptureOwner(uint256 _id) public payable {\n        //MAKE SURE ID IS VALID\n        require(_id > 0 && _id <= scripturesCount);\n\n        //FETCH SCRIPTURES\n        Scripture memory _scripture = scriptures[_id];\n\n        //FETCH THE AUTHOR\n\n        address payable _author = _scripture.author;\n\n        //PAY THE AUTHOR BY SENDING THEM ETHER\n\n        address(_author).transfer(msg.value);\n\n        //INCREMENT THE TIP AMOUNT\n\n        _scripture.tipAmount = _scripture.tipAmount + msg.value;\n\n        //UPDATE THE SCRIPTURE\n\n        scriptures[_id] = _scripture;\n\n        //TRIGGER AN EVENT\n        emit ScriptureTipped(\n            _id,\n            _scripture.hash,\n            _scripture.title,\n            _scripture.text,\n            _scripture.tipAmount,\n            _author\n        );\n\n        // emit ScriptureTipped(_id, hash, title, text, tipAmount, author);x\n    }\n}\n\n",
  "sourcePath": "/Users/eddieruiz/Desktop/AInomads/CryptoScripture/CryptoScripture/src/contracts/CryptoScripture.sol",
  "compiler": {
    "name": "solc",
    "version": "0.5.16+commit.9c3226ce.Emscripten.clang"
  },
  "schemaVersion": "3.2.3",
  "updatedAt": "2021-03-22T15:56:49.970Z",
  "networkType": "ethereum",
  "devdoc": {
    "methods": {}
  },
  "userdoc": {
    "methods": {}
  }
}