{
  "contractName": "CryptoScripture",
  "abi": [
    {
      "anonymous": false,
      "inputs": [
        {
          "indexed": false,
          "internalType": "uint256",
          "name": "id",
          "type": "uint256"
        },
        {
          "indexed": false,
          "internalType": "string",
          "name": "hash",
          "type": "string"
        },
        {
          "indexed": false,
          "internalType": "string",
          "name": "title",
          "type": "string"
        },
        {
          "indexed": false,
          "internalType": "string",
          "name": "text",
          "type": "string"
        },
        {
          "indexed": false,
          "internalType": "string",
          "name": "date",
          "type": "string"
        },
        {
          "indexed": false,
          "internalType": "uint256",
          "name": "tipAmount",
          "type": "uint256"
        },
        {
          "indexed": false,
          "internalType": "address payable",
          "name": "author",
          "type": "address"
        },
        {
          "indexed": false,
          "internalType": "uint256",
          "name": "timestamp",
          "type": "uint256"
        }
      ],
      "name": "ScriptureCreated",
      "type": "event"
    },
    {
      "anonymous": false,
      "inputs": [
        {
          "indexed": false,
          "internalType": "uint256",
          "name": "id",
          "type": "uint256"
        },
        {
          "indexed": false,
          "internalType": "string",
          "name": "hash",
          "type": "string"
        },
        {
          "indexed": false,
          "internalType": "string",
          "name": "title",
          "type": "string"
        },
        {
          "indexed": false,
          "internalType": "string",
          "name": "text",
          "type": "string"
        },
        {
          "indexed": false,
          "internalType": "string",
          "name": "date",
          "type": "string"
        },
        {
          "indexed": false,
          "internalType": "uint256",
          "name": "tipAmount",
          "type": "uint256"
        },
        {
          "indexed": false,
          "internalType": "address payable",
          "name": "author",
          "type": "address"
        },
        {
          "indexed": false,
          "internalType": "uint256",
          "name": "timestamp",
          "type": "uint256"
        }
      ],
      "name": "ScriptureTipped",
      "type": "event"
    },
    {
      "constant": true,
      "inputs": [],
      "name": "name",
      "outputs": [
        {
          "internalType": "string",
          "name": "",
          "type": "string"
        }
      ],
      "payable": false,
      "stateMutability": "view",
      "type": "function"
    },
    {
      "constant": true,
      "inputs": [
        {
          "internalType": "uint256",
          "name": "",
          "type": "uint256"
        }
      ],
      "name": "scriptures",
      "outputs": [
        {
          "internalType": "uint256",
          "name": "id",
          "type": "uint256"
        },
        {
          "internalType": "string",
          "name": "hash",
          "type": "string"
        },
        {
          "internalType": "string",
          "name": "title",
          "type": "string"
        },
        {
          "internalType": "string",
          "name": "text",
          "type": "string"
        },
        {
          "internalType": "string",
          "name": "date",
          "type": "string"
        },
        {
          "internalType": "uint256",
          "name": "tipAmount",
          "type": "uint256"
        },
        {
          "internalType": "address payable",
          "name": "author",
          "type": "address"
        },
        {
          "internalType": "uint256",
          "name": "timestamp",
          "type": "uint256"
        }
      ],
      "payable": false,
      "stateMutability": "view",
      "type": "function"
    },
    {
      "constant": true,
      "inputs": [],
      "name": "scripturesCount",
      "outputs": [
        {
          "internalType": "uint256",
          "name": "",
          "type": "uint256"
        }
      ],
      "payable": false,
      "stateMutability": "view",
      "type": "function"
    },
    {
      "constant": true,
      "inputs": [],
      "name": "timestamp",
      "outputs": [
        {
          "internalType": "uint256",
          "name": "",
          "type": "uint256"
        }
      ],
      "payable": false,
      "stateMutability": "view",
      "type": "function"
    },
    {
      "constant": false,
      "inputs": [
        {
          "internalType": "string",
          "name": "_scripHash",
          "type": "string"
        },
        {
          "internalType": "string",
          "name": "_title",
          "type": "string"
        },
        {
          "internalType": "string",
          "name": "_text",
          "type": "string"
        },
        {
          "internalType": "string",
          "name": "_date",
          "type": "string"
        }
      ],
      "name": "uploadScripture",
      "outputs": [],
      "payable": false,
      "stateMutability": "nonpayable",
      "type": "function"
    },
    {
      "constant": false,
      "inputs": [
        {
          "internalType": "uint256",
          "name": "_id",
          "type": "uint256"
        }
      ],
      "name": "tipScriptureOwner",
      "outputs": [],
      "payable": true,
      "stateMutability": "payable",
      "type": "function"
    }
  ],
  "bytecode": "0x60806040526040518060400160405280601181526020017f4e6f6d616473205363726970747572657300000000000000000000000000000081525060009080519060200190620000519291906200006f565b504260015560006002553480156200006857600080fd5b506200011e565b828054600181600116156101000203166002900490600052602060002090601f016020900481019282601f10620000b257805160ff1916838001178555620000e3565b82800160010185558215620000e3579182015b82811115620000e2578251825591602001919060010190620000c5565b5b509050620000f29190620000f6565b5090565b6200011b91905b8082111562000117576000816000905550600101620000fd565b5090565b90565b6115ac806200012e6000396000f3fe6080604052600436106100555760003560e01c806306fdde031461005a5780631adb8ab8146100ea578063445782591461032a578063558473e814610358578063b80777ea146105e5578063c2f8271614610610575b600080fd5b34801561006657600080fd5b5061006f61063b565b6040518080602001828103825283818151815260200191508051906020019080838360005b838110156100af578082015181840152602081019050610094565b50505050905090810190601f1680156100dc5780820380516001836020036101000a031916815260200191505b509250505060405180910390f35b3480156100f657600080fd5b506101236004803603602081101561010d57600080fd5b81019080803590602001909291905050506106d9565b60405180898152602001806020018060200180602001806020018881526020018773ffffffffffffffffffffffffffffffffffffffff1673ffffffffffffffffffffffffffffffffffffffff16815260200186815260200185810385528c818151815260200191508051906020019080838360005b838110156101b3578082015181840152602081019050610198565b50505050905090810190601f1680156101e05780820380516001836020036101000a031916815260200191505b5085810384528b818151815260200191508051906020019080838360005b838110156102195780820151818401526020810190506101fe565b50505050905090810190601f1680156102465780820380516001836020036101000a031916815260200191505b5085810383528a818151815260200191508051906020019080838360005b8381101561027f578082015181840152602081019050610264565b50505050905090810190601f1680156102ac5780820380516001836020036101000a031916815260200191505b50858103825289818151815260200191508051906020019080838360005b838110156102e55780820151818401526020810190506102ca565b50505050905090810190601f1680156103125780820380516001836020036101000a031916815260200191505b509c5050505050505050505050505060405180910390f35b6103566004803603602081101561034057600080fd5b81019080803590602001909291905050506109a1565b005b34801561036457600080fd5b506105e36004803603608081101561037b57600080fd5b810190808035906020019064010000000081111561039857600080fd5b8201836020820111156103aa57600080fd5b803590602001918460018302840111640100000000831117156103cc57600080fd5b91908080601f016020809104026020016040519081016040528093929190818152602001838380828437600081840152601f19601f8201169050808301925050505050505091929192908035906020019064010000000081111561042f57600080fd5b82018360208201111561044157600080fd5b8035906020019184600183028401116401000000008311171561046357600080fd5b91908080601f016020809104026020016040519081016040528093929190818152602001838380828437600081840152601f19601f820116905080830192505050505050509192919290803590602001906401000000008111156104c657600080fd5b8201836020820111156104d857600080fd5b803590602001918460018302840111640100000000831117156104fa57600080fd5b91908080601f016020809104026020016040519081016040528093929190818152602001838380828437600081840152601f19601f8201169050808301925050505050505091929192908035906020019064010000000081111561055d57600080fd5b82018360208201111561056f57600080fd5b8035906020019184600183028401116401000000008311171561059157600080fd5b91908080601f016020809104026020016040519081016040528093929190818152602001838380828437600081840152601f19601f820116905080830192505050505050509192919290505050611079565b005b3480156105f157600080fd5b506105fa61146b565b6040518082815260200191505060405180910390f35b34801561061c57600080fd5b50610625611471565b6040518082815260200191505060405180910390f35b60008054600181600116156101000203166002900480601f0160208091040260200160405190810160405280929190818152602001828054600181600116156101000203166002900480156106d15780601f106106a6576101008083540402835291602001916106d1565b820191906000526020600020905b8154815290600101906020018083116106b457829003601f168201915b505050505081565b6003602052806000526040600020600091509050806000015490806001018054600181600116156101000203166002900480601f01602080910402602001604051908101604052809291908181526020018280546001816001161561010002031660029004801561078b5780601f106107605761010080835404028352916020019161078b565b820191906000526020600020905b81548152906001019060200180831161076e57829003601f168201915b505050505090806002018054600181600116156101000203166002900480601f0160208091040260200160405190810160405280929190818152602001828054600181600116156101000203166002900480156108295780601f106107fe57610100808354040283529160200191610829565b820191906000526020600020905b81548152906001019060200180831161080c57829003601f168201915b505050505090806003018054600181600116156101000203166002900480601f0160208091040260200160405190810160405280929190818152602001828054600181600116156101000203166002900480156108c75780601f1061089c576101008083540402835291602001916108c7565b820191906000526020600020905b8154815290600101906020018083116108aa57829003601f168201915b505050505090806004018054600181600116156101000203166002900480601f0160208091040260200160405190810160405280929190818152602001828054600181600116156101000203166002900480156109655780601f1061093a57610100808354040283529160200191610965565b820191906000526020600020905b81548152906001019060200180831161094857829003601f168201915b5050505050908060050154908060060160009054906101000a900473ffffffffffffffffffffffffffffffffffffffff16908060070154905088565b6000811180156109b357506002548111155b6109bc57600080fd5b6109c4611477565b600360008381526020019081526020016000206040518061010001604052908160008201548152602001600182018054600181600116156101000203166002900480601f016020809104026020016040519081016040528092919081815260200182805460018160011615610100020316600290048015610a865780601f10610a5b57610100808354040283529160200191610a86565b820191906000526020600020905b815481529060010190602001808311610a6957829003601f168201915b50505050508152602001600282018054600181600116156101000203166002900480601f016020809104026020016040519081016040528092919081815260200182805460018160011615610100020316600290048015610b285780601f10610afd57610100808354040283529160200191610b28565b820191906000526020600020905b815481529060010190602001808311610b0b57829003601f168201915b50505050508152602001600382018054600181600116156101000203166002900480601f016020809104026020016040519081016040528092919081815260200182805460018160011615610100020316600290048015610bca5780601f10610b9f57610100808354040283529160200191610bca565b820191906000526020600020905b815481529060010190602001808311610bad57829003601f168201915b50505050508152602001600482018054600181600116156101000203166002900480601f016020809104026020016040519081016040528092919081815260200182805460018160011615610100020316600290048015610c6c5780601f10610c4157610100808354040283529160200191610c6c565b820191906000526020600020905b815481529060010190602001808311610c4f57829003601f168201915b50505050508152602001600582015481526020016006820160009054906101000a900473ffffffffffffffffffffffffffffffffffffffff1673ffffffffffffffffffffffffffffffffffffffff1673ffffffffffffffffffffffffffffffffffffffff168152602001600782015481525050905060008160c0015190508073ffffffffffffffffffffffffffffffffffffffff166108fc349081150290604051600060405180830381858888f19350505050158015610d30573d6000803e3d6000fd5b50348260a00151018260a00181815250508160036000858152602001908152602001600020600082015181600001556020820151816001019080519060200190610d7b9291906114d2565b506040820151816002019080519060200190610d989291906114d2565b506060820151816003019080519060200190610db59291906114d2565b506080820151816004019080519060200190610dd29291906114d2565b5060a0820151816005015560c08201518160060160006101000a81548173ffffffffffffffffffffffffffffffffffffffff021916908373ffffffffffffffffffffffffffffffffffffffff16021790555060e082015181600701559050507ff0ee6f21186cacaeb1b6fc808653664688af45440e05c634c78bcd401e480f848383602001518460400151856060015186608001518760a00151874260405180898152602001806020018060200180602001806020018881526020018773ffffffffffffffffffffffffffffffffffffffff1673ffffffffffffffffffffffffffffffffffffffff16815260200186815260200185810385528c818151815260200191508051906020019080838360005b83811015610efe578082015181840152602081019050610ee3565b50505050905090810190601f168015610f2b5780820380516001836020036101000a031916815260200191505b5085810384528b818151815260200191508051906020019080838360005b83811015610f64578082015181840152602081019050610f49565b50505050905090810190601f168015610f915780820380516001836020036101000a031916815260200191505b5085810383528a818151815260200191508051906020019080838360005b83811015610fca578082015181840152602081019050610faf565b50505050905090810190601f168015610ff75780820380516001836020036101000a031916815260200191505b50858103825289818151815260200191508051906020019080838360005b83811015611030578082015181840152602081019050611015565b50505050905090810190601f16801561105d5780820380516001836020036101000a031916815260200191505b509c5050505050505050505050505060405180910390a1505050565b600084511161108757600080fd5b600082511161109557600080fd5b60008351116110a357600080fd5b600073ffffffffffffffffffffffffffffffffffffffff163373ffffffffffffffffffffffffffffffffffffffff1614156110dd57600080fd5b6002600081548092919060010191905055506040518061010001604052806002548152602001858152602001848152602001838152602001828152602001600081526020013373ffffffffffffffffffffffffffffffffffffffff1681526020014281525060036000600254815260200190815260200160002060008201518160000155602082015181600101908051906020019061117d9291906114d2565b50604082015181600201908051906020019061119a9291906114d2565b5060608201518160030190805190602001906111b79291906114d2565b5060808201518160040190805190602001906111d49291906114d2565b5060a0820151816005015560c08201518160060160006101000a81548173ffffffffffffffffffffffffffffffffffffffff021916908373ffffffffffffffffffffffffffffffffffffffff16021790555060e082015181600701559050507f4801baa5eb5c01287ed1e6d442bc11bfe5842e3d51f0df65f3fa8ea3c5473b39600254858585856000334260405180898152602001806020018060200180602001806020018881526020018773ffffffffffffffffffffffffffffffffffffffff1673ffffffffffffffffffffffffffffffffffffffff16815260200186815260200185810385528c818151815260200191508051906020019080838360005b838110156112ef5780820151818401526020810190506112d4565b50505050905090810190601f16801561131c5780820380516001836020036101000a031916815260200191505b5085810384528b818151815260200191508051906020019080838360005b8381101561135557808201518184015260208101905061133a565b50505050905090810190601f1680156113825780820380516001836020036101000a031916815260200191505b5085810383528a818151815260200191508051906020019080838360005b838110156113bb5780820151818401526020810190506113a0565b50505050905090810190601f1680156113e85780820380516001836020036101000a031916815260200191505b50858103825289818151815260200191508051906020019080838360005b83811015611421578082015181840152602081019050611406565b50505050905090810190601f16801561144e5780820380516001836020036101000a031916815260200191505b509c5050505050505050505050505060405180910390a150505050565b60015481565b60025481565b604051806101000160405280600081526020016060815260200160608152602001606081526020016060815260200160008152602001600073ffffffffffffffffffffffffffffffffffffffff168152602001600081525090565b828054600181600116156101000203166002900490600052602060002090601f016020900481019282601f1061151357805160ff1916838001178555611541565b82800160010185558215611541579182015b82811115611540578251825591602001919060010190611525565b5b50905061154e9190611552565b5090565b61157491905b80821115611570576000816000905550600101611558565b5090565b9056fea265627a7a723158201be03b39ddf8a7cd5d16707d296da038472213271d9e15c485aa22443c49485864736f6c63430005100032",
  "source": "pragma solidity ^0.5.0;\n\n//TODO ADD HASHTAGS (OPTIONAL)\n\n\ncontract CryptoScripture {\n    // Code goes here...\n\n    string public name = \"Nomads Scriptures\";\n    uint256 public timestamp = block.timestamp;\n\n    // STORE SCRIPTURES\n\n      uint public scripturesCount = 0;\n\n    mapping(uint => Scripture) public scriptures;\n\n    struct Scripture {\n        uint id;\n        string hash;\n        string title;\n        string text;\n        string date;\n        uint tipAmount;\n        address payable author;\n        uint timestamp;\n    }\n\n    event ScriptureCreated(\n        uint id,\n        string hash,\n        string title,\n        string text,\n        string date,\n        uint tipAmount,\n        address payable author,\n        uint timestamp\n    );\n\n    event ScriptureTipped(\n        uint id,\n        string hash,\n        string title,\n        string text,\n        string date,\n        uint tipAmount,\n        address payable author,\n        uint timestamp\n    );\n\n\n\n    // CREATE SCRIPTURE\n    function uploadScripture(\n        string memory _scripHash,\n        string memory _title,\n        string memory _text,\n        string memory _date\n    ) public {\n\n\n        //ENSURE THAT SCRIPTURE HASH EXISTS\n        require(bytes(_scripHash).length > 0);\n        // ENSURE THAT SCRIPTURE DESCRIPTION EXISTS\n        require(bytes(_text).length > 0);\n        // ENSURE THAT SCRIPTURE TITLE EXIST\n        require(bytes(_title).length > 0);\n        // ENSURE THAT UPLOADER ADDRESS ALREADY\n        require(msg.sender != address(0));\n        // INCREMENT SCRIPTURE ID\n        scripturesCount++;\n        // ADD SCRIPTURE TO CONTRACT\n        scriptures[scripturesCount] = Scripture(\n            scripturesCount,\n            _scripHash,\n            _title,\n            _text,\n            _date,\n            0,\n            msg.sender,\n            block.timestamp\n        );\n\n        // TRIGGER ON EVENT\n        emit ScriptureCreated(\n            scripturesCount,\n            _scripHash,\n            _title,\n            _text,\n            _date,\n            0,\n            msg.sender,\n            block.timestamp\n        );\n    }\n\n    // TIP SCRIPTURES\n\n    function tipScriptureOwner(uint256 _id) public payable {\n        //MAKE SURE ID IS VALID\n        require(_id > 0 && _id <= scripturesCount);\n\n        //FETCH SCRIPTURES\n        Scripture memory _scripture = scriptures[_id];\n\n        //FETCH THE AUTHOR\n\n        address payable _author = _scripture.author;\n\n        //PAY THE AUTHOR BY SENDING THEM ETHER\n\n        address(_author).transfer(msg.value);\n\n        //INCREMENT THE TIP AMOUNT\n\n        _scripture.tipAmount = _scripture.tipAmount + msg.value;\n\n        //UPDATE THE SCRIPTURE\n\n        scriptures[_id] = _scripture;\n\n        //TRIGGER AN EVENT\n        emit ScriptureTipped(\n            _id,\n            _scripture.hash,\n            _scripture.title,\n            _scripture.text,\n            _scripture.date,\n            _scripture.tipAmount,\n            _author,\n            block.timestamp\n        );\n\n        // emit ScriptureTipped(_id, hash, title, text, tipAmount, author);x\n    }\n}\n\n",
  "sourcePath": "/Users/eddieruiz/Desktop/AInomads/CryptoScripture/CryptoScripture/src/contracts/CryptoScripture.sol",
  "compiler": {
    "name": "solc",
    "version": "0.5.16+commit.9c3226ce.Emscripten.clang"
  },
  "schemaVersion": "3.2.3",
  "updatedAt": "2021-05-11T19:14:53.667Z",
  "networkType": "ethereum",
  "devdoc": {
    "methods": {}
  },
  "userdoc": {
    "methods": {}
  }
}